:1000000000000420BD020000E5020000E70200003D
:10001000E9020000EB020000ED0200000000000019
:10002000000000000000000000000000EF020000DF
:10003000F102000000000000F3020000F5020000E1
:10004000F7020000F7020000E91C00006D1F00002D
:10005000C51D0000F7020000F7020000F7020000D3
:10006000F7020000F7020000F7020000F7020000AC
:10007000F7020000F7020000F7020000F70200009C
:10008000F7020000F7020000F7020000F70200008C
:10009000F7020000F7020000F7020000F70200007C
:1000A000F7020000F7020000F7020000F70200006C
:1000B000F7020000F702000000000000000000004E
:1000C000F7020000F7020000F7020000F70200004C
:1000D000F7020000F7020000F7020000F70200003C
:1000E000F7020000F7020000F70200000000000025
:1000F00000000000F702000000000000F70200000E
:1001000000000000000000000000000000000000EF
:1001100000000000000000000000000000000000DF
:1001200000000000000000000000000000000000CF
:1001300000000000000000000000000000000000BF
:1001400000000000000000000000000000000000AF
:10015000000000000000000000000000000000009F
:10016000000000000000000000000000000000008F
:10017000000000000000000000000000000000007F
:10018000000000000000000000000000000000006F
:10019000000000000000000000000000000000005F
:1001A000000000000000000000000000000000004F
:1001B000000000000000000000000000000000003F
:1001C000000000000000000000000000000000002F
:1001D000000000000000000000000000000000001F
:1001E000000000000000000000000000000000000F
:1001F00000000000000000000000000000000000FF
:1002000010B5054C237833B9044B13B10448AFF350
:1002100000800123237010BD90000020000000002A
:100220006862000008B5034B1BB103490348AFF3F4
:10023000008008BD000000009400002068620000FB
:10024000A3F5803A704700BF174B002B08BF134B34
:100250009D46FFF7F5FF00218B460F461348144AD1
:10026000121A05F0A1FC0E4B002B00D098470D4B45
:10027000002B00D098470020002104000D000D48FD
:10028000002802D00C48AFF3008005F05BFC200092
:10029000290003F009F805F041FC00BF0000080048
:1002A000000000000000000000000420900000207A
:1002B000F007002000000000000000000649074A87
:1002C000074B9B1A03DD043BC858D050FBDC05F0FC
:1002D00049FBFFF7B9FF0000C062000000000020EA
:1002E00090000020FEE7FEE7FEE7FEE7FEE7FEE700
:1002F000FEE7FEE7FEE7FEE7F0B595B00E460846DE
:100300001A9D17461C4601F001FB0023082205A98F
:100310003046CDE90C350A938DF82C30CDE90874C0
:1003200001F058FBDDE906209DF814300121CDE9EC
:10033000020203F003028A428DF8111028D0022A2B
:1003400004D0304601F0E6FA15B0F0BDBDF8165005
:10035000C3F3C203C5F389158DF810300827082DA3
:100360002C4628BF08243B4622460EA9304601F001
:1003700031FB2D1B08AB02AA21460EA8274400F032
:100380007DFD002DEBD1304601F0C4FA15B0F0BD73
:10039000BDF814100598C1F38312C3F3C203C0F370
:1003A0009525C1F383148DF810300EA930469200C4
:1003B000082301F00FFB08AB0093224602AB0EA905
:1003C000284600F0E5FC304601F0A4FA15B0F0BD77
:1003D000014B01221A707047F0000020704700BFE7
:1003E00000B583B0044B0093044A4023FFF784FF19
:1003F00003B05DF804FB00BF01040000B000002062
:1004000038B50F480F4D03780F4CEB5C4FF0000CE4
:1004100084F800C0D2B253B1043002F0A7FD58B93D
:100420000A4B1B7813B12378002BFCD038BD0C305D
:1004300002F0CEFA0028F3D000F0A2FDF0E700BFF2
:1004400000000020A4060020F0000020AC000020E6
:1004500010B51548154A0378D35C88B0C3B1043091
:1004600002F0E8FC124C0FCCEC46ACE80F0094E82C
:100470000F008CE80F0006230B480093002269460A
:1004800001F0F6FB40B90B4B00221A7008B010BD0A
:100490000C3002F01FFAE5E700F072FD054B002278
:1004A0001A7008B010BD00BF00000020A406002094
:1004B000E45B0000AC00002010B50F4C0FCC88B0FE
:1004C000EC46ACE80F0094E80F008CE80F00062320
:1004D0000A4A0B480093694601F0CAFB20B9094B50
:1004E00001221A7008B010BD00F04AFD054B012230
:1004F0001A7008B010BD00BFE45B0000D10300001B
:1005000000000020AC00002008B5FFF7D5FF04482C
:10051000042100F0B7FB034B01225A7108BD00BF54
:100520009462000014000020F0B5314D85B005F54F
:10053000836000F09FFD05F2144000F09BFDD5E9BB
:10054000013703EA0701CA1C05EB820415F82220D3
:10055000500710D502F00406207800F003000128AF
:1005600039D0022803F1020201F1030026D005EB85
:100570008004002EF0D105EB81015A1CC86801905F
:100580003A4005EB820200F003010129D66803F12D
:10059000020426D002290FD1BDF80630C3F3891317
:1005A0000333360C04EB9304124800F06FFD00B1E6
:1005B0006C60304605B0F0BD0026F5E7638802EBBD
:1005C000931307EA0301CA1C05EB820415F82220E5
:1005D00002F00406CDE722880233C2F383121344EB
:1005E000EFE7BDF80430C3F38313360C1C44DBE79C
:1005F000C4010020D80500200B4B0C4810B5002288
:10060000FF21C3F81824C3E900229960C3F8142419
:1006100083F8202401F02EF9044610B9044801F0B3
:100620000DFA204610BD00BFC4010020A4620000E6
:100630003C5C000030B499B10D490E4D491BC9080E
:1006400013D00D4C002302E0013399420AD034F854
:1006500023208242F8D1184655F8300030BC70474C
:10066000044DF9E7002030BC70470846F6E700BFAC
:10067000946200006C6200008C000020094B01397C
:1006800003EBC00003290BD8DFE801F004020806E1
:100690000420704702207047407970470079704706
:1006A000002070476C6200002DE9F047974CD4E9B8
:1006B00000239A4284B065D00023C4F81834BFF3F5
:1006C0004F8FD4E9013503EA0501CA1C04EB820C03
:1006D00014F8222050071BD526689CF8002002F051
:1006E0000302012A43D0022A04D1BCF802200233BB
:1006F00003EB921303EA0501D4F81804CA1C04EBB7
:10070000820C28B99E4239D914F822205207E4D429
:1007100004EB81019E1C0133CA6801922B4004EB5B
:10072000830302F00302DB680293022A2ED0012A1F
:1007300000F09580D4F810543DB12B6828469B6892
:100740009847EB681D68002DF7D17148714B7249CD
:10075000C01AC008000440F0020000F0E3F8D4E939
:100760000030C01A18BF012004B0BDE8F087BCF803
:1007700000200233C2F383121344BBE7666004B067
:10078000BDE8F087002004B0BDE8F087BDF8063072
:100790006248C3F38919B9F1500FC84628BF4FF01A
:1007A000500808F1080168F38F13C1F30901ADF88F
:1007B000063001F061F807460028BBD001F0A6F82A
:1007C0000023082201A9384601F0D0F825EA0603E3
:1007D0000133B8EB830F4FEA830A7CD9BAF1000FDB
:1007E00000F08C8005EA0601033104EB81015246DA
:1007F00038460823A8EB0A0801F0B8F85FFA88F831
:100800000AF10803464903F0FC034246384601F06A
:10081000ADF809F1030906EB9906D4F81834002B5A
:1008200068D1D4F8105465B1EB685A792846394636
:10083000002A5BD02B681B689847EB681D68002D69
:10084000F2D1384601F066F8002000F0DFFBD4F862
:10085000183403B96660002000F0E0FB7FE7BDF8C4
:1008600004202E48C2F38313062B28BF062363F30C
:100870008912023303F00F018900ADF8042000F063
:10088000FBFF074600283FF455AF01F03FF8002377
:10089000082201A9384601F069F8BDF8043013F4C4
:1008A000707FBAD04FF00008314629404FEA8803E4
:1008B0000331083304EB81010422384601F056F875
:1008C000BDF8043008F10108C3F38313434506F172
:1008D0000106E9D8A1E705EA06010331424604EB27
:1008E00081010823384601F041F892E71D68002D88
:1008F0009AD1A6E7384601F00DF830E7084942469C
:100900000823384601F032F883E700BFC401002015
:100910008C6200006C620000245C0000A462000095
:10092000D00100202DE9F843DFF8B89005460020FB
:10093000D9F80860884600F069FBD9E90132D9F896
:10094000007013440133DB1B012B46D809F21C4411
:100950000121204600F076FBFFF7E6FD0146204628
:1009600000F070FBD9E90132D9F8001013440133CB
:100970005B1A012BECD90A40033205230231002017
:1009800049F82230C9F8001000F048FB0021144853
:1009900000F04EFB80F31003E9007A1C324001F0B6
:1009A00038013E401B0441F0010109EB820203368D
:1009B00043EA154341EA8821D36049F8261099F8A3
:1009C00020340BB9BDE8F883FFF76EFE0028F9D09C
:1009D000FFF76AFE0028F7D1F4E73946CBE700BFFE
:1009E000E0050020C40100202DE9F047DFF8C4A095
:1009F000054600209146DAF80860884600F006FBBC
:100A0000DAE90132DAF8007013440133DB1B022B00
:100A10004CD80AF21C440121204600F013FBFFF7DA
:100A200083FD0146204600F00DFBDAE90132DAF8D9
:100A30000010134401335B1A022BECD90A40033235
:100A40000331452300204AF82230CAF8001000F094
:100A5000E5FABB1C33400AEB83030021C3F80C907A
:100A6000134800F0E5FA80F31003E9007A1C3240E5
:100A700001F038013E401B0441F041010AEB8202C3
:100A8000033643EA154341EA8821D3604AF8261029
:100A90009AF820340BB9BDE8F087FFF705FE00286F
:100AA000F9D0FFF701FE0028F7D1F4E73946C5E792
:100AB000E0050020C40100202DE9F84F344C064623
:100AC000002093469A46A768894600F09FFAD4E929
:100AD0000132D4F8008013440133A3EB0803032B45
:100AE00054D804F21C450121284600F0ABFAFFF768
:100AF0001BFD0146284600F0A5FAD4E90132216821
:100B0000134401335B1A032BEDD90A40033204313D
:100B10008523002044F82230216000F07FFA08F19C
:100B200002033B4004EB83030021C3F80CB008F13F
:100B300003033B4004EB83031648C3F80CA000F00A
:100B400077FA80F31003F10008F101023A4001F056
:100B5000380107EA08071B0441F0810104EB820217
:100B6000033743EA164341EA8921D36044F827104A
:100B700094F820340BB9BDE8F88FFFF795FD0028F5
:100B8000F9D0FFF791FD0028F7D1F4E74146BCE723
:100B9000C4010020E00500202DE9F84FDFF8E0B0A7
:100BA0000546002092469946DBF80860884600F02A
:100BB0002DFADBE90132DBF8007013440133DB1B53
:100BC000042B58D80BF21C440121204600F03AFABD
:100BD000FFF7AAFC0146204600F034FADBE90132B7
:100BE000DBF80010134401335B1A042BECD90A40E4
:100BF00003320531C52300204BF82230CBF800101A
:100C000000F00CFABB1C33400BEB83030A9AC3F8C9
:100C10000CA0FB1C33400BEB83030021C3F80C90AA
:100C20003B1D33400BEB83031448DA6000F000FAFD
:100C300080F31003E9007A1C324001F038013E4095
:100C40001B0441F0C1010BEB8202033643EA15435A
:100C500041EA8821D3604BF826109BF820340BB969
:100C6000BDE8F88FFFF720FD0028F9D0FFF71CFD45
:100C70000028F7D1F4E73946B9E700BFE0050020C6
:100C8000C401002030B4154DD5F8101404460020DE
:100C900071B10B4601E01B6853B1DB681A798242DF
:100CA000F9D101300A28F3D14FF0FF3030BC704742
:100CB000E3681871D5F810344BB1DA68E36812684C
:100CC0001A60D5F81034DB681C6030BC7047C5F87A
:100CD0001044E268136030BC704700BFC4010020BC
:100CE00038B5094BD3F81044012583F820544CB192
:100CF000E3685D71236820465B689847E3681C6879
:100D0000002CF5D138BD00BFC401002030B5C38828
:100D100085B004460D4623BB237A052B1FD0627A8B
:100D200082B9144AA08852F8232003920021FFF7C9
:100D300081FC039A10490346284605B0BDE83040BF
:100D400000F016BA1946A088FFF798FC0B4B0C4927
:100D500053F82020284600F00BFA237AE1E705B08B
:100D600030BD08490091084A0849284600F000FAB9
:100D7000D2E700BF145D0000745C0000F05C00006E
:100D8000705C0000685C0000485C0000505C000083
:100D90002DE9F04385B01D460C9C002394F80C907F
:100DA000237380460E46174621462846FFF7AEFFBE
:100DB000062F09D8DFE807F0042E343B444F1F000C
:100DC0004146204600F0D4F92B7A052B05D06B7AEA
:100DD0005BB92749204600F0CBF9204600F0BCF96A
:100DE00084F80C9005B0BDE8F083224A22492046E1
:100DF00000F0BEF9EDE77369039333690293F3687A
:100E00000193B3680093D6E900234146204600F0E1
:100E1000AFF9D9E732684146204600F0A9F9D3E797
:100E2000D6E900234146204600F0A2F9CCE7B3689A
:100E30000093D6E900234146204600F099F9C3E724
:100E4000F3680193B3680093D6E900234146204636
:100E500000F08EF9B8E733690293F3680193B36841
:100E60000093D6E900234146204600F081F9ABE724
:100E7000805C0000685C0000705C0000082900D9FC
:100E800070472DE9F04F1D4683B000241B7B2C7367
:100E90000E4607462946104690460193DFF8D0B02B
:100EA000DFF8D0A0FFF732FF05E03A5D013400F033
:100EB0005FF9082C09D0A64251462846F5D8594674
:100EC000013400F055F9082CF5D12449DFF8A8B019
:100ED000234CDFF8A8A0284600F04AF94FF000099B
:100EE00017E017F80910481C7E294FF02E02C0B2F7
:100EF00006D810F80A2012F0970F14BF0A462E22C7
:100F00002146284609F1010900F032F9B9F1080F2C
:100F10000AD04E45E5D85946284609F1010900F0A6
:100F200027F9B9F1080FF4D198F80830052B02D051
:100F300098F809305BB90B49284600F019F92846A2
:100F400000F00AF9019B2B7303B0BDE8F08F064A4D
:100F50000649284600F00CF9EDE700BF905C000060
:100F6000945C0000805C0000685C0000705C000025
:100F70008C5C0000845C00007C5C0000626100000E
:100F800000B585B00346002101AA44F20100CDE975
:100F90000111039300F004F805B05DF804FB00BFF5
:100FA00010B572B6FFF79CFEFFF77EFB0028FBD161
:100FB000104B114C1149E41AE408240444F00100D8
:100FC000FFF7B0FC0E4BD3F8F030DB0700D500BEC6
:100FD0000C4944F00200FFF7A5FCBFF34F8F08490E
:100FE000094BCA6802F4E0621343CB60BFF34F8F32
:100FF00000BFFDE76C6200008C620000285D00000D
:1010000000ED00E0345D00000400FA0572B6024A0B
:10101000136801331360704780060020034A136889
:10102000013B136003B962B6704700BF8006002021
:10103000034653E8000F0A4643E8002C9CF0000FDB
:10104000F7D17047034653E8002F02EB010043E855
:10105000000C9CF0000FF6D1704700BF034653E828
:10106000002FA2EB010043E8000C9CF0000FF6D12A
:10107000704700BF0346012253E8001F41EA020007
:1010800043E8000C9CF0000FF6D1704703460022A5
:1010900053E8000F00EA020143E8001C9CF0000F37
:1010A000F6D17047D0B110B4D0E90112521A0468D9
:1010B000D2B2531E2160DBB252B101680A6803F15B
:1010C000FF3C541C0C6013705FFA8CF3FF2BF4D1BF
:1010D0000368002018715DF8044B70470E207047BC
:1010E00038B504460020FFF791FFD4E900311A68B3
:1010F0008A4215D9511E19602168A36812F8012C83
:10110000208A0D68E4685B1B00FB02440A79DBB2AD
:101110009A4200D20B710020FFF780FF204638BDB5
:1011200000240020FFF77AFF204638BD38B5054679
:1011300000200C46FFF76AFF2A681368591C1160EB
:10114000E9682A8A641AB4FBF2F41C70BDE83840DE
:101150000020FFF763BF00BF826842B110B50446AC
:1011600043690168006998470023A36010BD704778
:101170000EB400B582B0039921B104AB01AA01936A
:1011800000F0B6F802B05DF804EB03B0704700BFA2
:101190002DE9F04F154683B0A942DDF830900D9A45
:1011A0000F4606469A46C0F09E800B464FF0010857
:1011B000B3FBF5F39D4208F10108F9D9D04538BFDA
:1011C000D04612F00103019302D1B9F1000F67D1AB
:1011D000B268BAF1010F4FF0010406D90AF1FF3AE3
:1011E000BAF1010F05FB04F4F8D8B7FBF4F39D4204
:1011F00005D805FB04F4B7FBF4F39D42F9D9DFF8F9
:10120000ECA007E0AC42B4FBF5F31AD3B2681C467D
:10121000B7FBF3F31AF803B0BBF10A0F04FB137723
:1012200028D03368511CB16003F802B0D6E901320E
:101230009A42E7D33046FFF78FFFB4FBF5F3AC4299
:10124000E4D2019B9BB1B9F1000F10D02024C84516
:1012500009F1FF390BD2B3683268591CB160D4541C
:10126000D6E901329A4214D2B9F1000FEFD103B09E
:10127000BDE8F08F511C3368B1604FF00D019954F7
:10128000D6E901329A42CCD33046FFF765FFB26807
:10129000C7E73046FFF760FFB9F1000FD7D1E6E7A7
:1012A00093071AD42024B268C84502F1010190D2F4
:1012B0003368B1609C54D6E901329A4209F1FF3992
:1012C00003D2B9F1000FEFD183E73046FFF744FFB7
:1012D000B268B9F1000FE7D17BE7BAF1000F0CBF9C
:1012E00030242024DFE74FF0010867E7445D000069
:1012F000002900F05C822DE9F04FDFF870950D7841
:1013000085B0064690460C464FF00D0A0FE00A2DB8
:10131000B36800F08E803268591CB160D554D6E9AC
:1013200001329A4280F081802578002D69D0013405
:10133000002D66D0252DEAD10027234614F8012B75
:101340002D2A6CD0302A6DD02B2A61D02A2A7FD04A
:10135000A2F1300109294FF000050BD805EB8505F6
:1013600002EB450513F8012FA2F130010929A5F17F
:101370003005F3D92E2A1C4675D0002301E014F85D
:10138000012F02F0FB016829F9D0252A00F086819F
:10139000583AD1B2202930D8202A2ED8DFE812F0CE
:1013A00021002D002D002D002D002D002D002D00E1
:1013B0002D002D002D00FE0079002D002D002D00A8
:1013C0002D0079002D002D002D002D002D002D0069
:1013D000BD002D002D001A012D0016012D002D003D
:1013E0002100D8F800101022081DC8F80000096874
:1013F0003046CDE90057FFF7CBFE01342578002DAC
:1014000095D1337B002B40F0438105B0BDE8F08FD0
:10141000234614F8012B2D2A47F0040792D147F0F8
:1014200001078AE747F0020787E73046FFF794FE97
:101430007AE73268591CB16002F803A0D6E90123AB
:101440009342FFF468AF3046FFF786FEB36862E769
:10145000D8F80020111DC8F8001015685A782E2AF7
:1014600003F1010489D16278A2F13003092B04F160
:1014700001044FF0000384D803EB830302EB430322
:1014800014F8012FA2F130010929A3F13003F3D997
:1014900077E7D8F80020111DC8F80010D2F800B086
:1014A0008BEAEB72A2EBEB72092A40F3DB81DFF8E7
:1014B000C0C3012011466329ACFB02E200F1010028
:1014C0004FEAD202F6DC9842024638BF1A46029230
:1014D000002D00F01E81BBF1000FC0F22E817A07B3
:1014E00000F12B81B80740F12A81002B40F02781C1
:1014F000BBF1000FC0F27D817A0700F18D8107F00A
:101500000302022A00F05D81CDE9005759460A2204
:101510003046FFF73DFE013470E7D8F800301A1D61
:10152000C8F800201F68B3683268581C3021B060CA
:10153000D154D6E90123934280F0FA80591C3268D5
:10154000B1607821D154D6E901329A4280F0EB8023
:101550000F2F03D93B461B090F2BFCD84FF08055AA
:1015600006E00F2D4FEA15137FF647AFB2681D4610
:10157000B7FBF5F319F803B0BBF10A0F05FB1377BE
:1015800077D03368511CB16003F802B0D6E901325C
:101590009A42E6D33046FFF7DFFDE2E7D8F80030A5
:1015A0001A1DC8F800201D78B3680A2D00F03A8192
:1015B0003268591CB160D554D6E901329A42FFF421
:1015C0001CAF3046FFF7C8FD013417E7D8F800100C
:1015D0000A2209E7D8F800301A1DC8F8002017F0D1
:1015E0000107D3F800B064D1BBF1000F03D0584617
:1015F00004F0E2FA0746BD4215D9202201E0BD42BF
:1016000011D0B1683368481CB0605A54D6E9013033
:10161000984205F1FF35F2D33046FFF79DFDBD42FC
:101620004FF02002EDD19BF80050002D3FF4E5AEC5
:101630000A2DB0680FD03368421CB2601D54D6E941
:101640000130984280F0B4801BF8015F002D3FF418
:10165000D4AE0A2DEFD13368421CB26003F800A06B
:10166000D6E901309842E6D33046FFF775FDB06801
:10167000E1E73368511CB16003F802A0D6E90132FA
:101680009A42FFF47EAF3046FFF766FDB26878E716
:10169000304605B0BDE8F04FFFF75EBDB368316876
:1016A000581CB060CA54D6E901329A4289D201343A
:1016B000A4E69BF80030002B00F0D680B0685F46AF
:1016C000CBF101020A2B02EB070B5ED0411CB1608B
:1016D00031680B54D6E90130984248D217F8013FDF
:1016E000002BEFD15D457FF688AE202702E05D45F7
:1016F0003FF483AEB2683368511CB1609F54D6E9A1
:1017000001329A4205F1FF35F1D33046FFF724FD4F
:10171000EDE7B80705D5002B3FF4EAAEF9073FF532
:10172000E7AE0025E4E63046FFF716FDB2680FE7A6
:101730003046FFF711FDB36800E7013DD2E6F90737
:101740003FF5D6AE002DECD020220299A942BFF47D
:10175000CFAEB168481CB06030684254D6E9010190
:10176000814205F1FF356CD2002DEED1D9E730462C
:101770000292FFF7F1FC17F8013F002BB2D0029A5A
:10178000B0680A2B02EB070BA0D1411CB160316895
:1017900001F800A0D6E90110884297D33046CDE980
:1017A0000232FFF7D9FCDDE90232B0688EE77047FC
:1017B0003046FFF7D1FC1BF8015F002D7FF438AFF6
:1017C0001BE6002B7FF4A0AE8DB1302202998D4232
:1017D0007FF69AAEB168481CB06030684254D6E9D2
:1017E0000101814205F1FF3535D2002DEED10025F2
:1017F0008AE6B1683268481CB060CBF1000B2D203E
:101800005054D6E901219142FFF479AE304603935A
:10181000FFF7A2FC039B72E6B1683268481CB06017
:101820002B20EDE73268591CB16002F803A0D6E91D
:1018300001239342FFF4BCAE3046FFF78DFCB36842
:10184000B6E630460393FFF787FC039B2022002D6A
:101850007FF47BAF65E730460393FFF77DFC039B86
:101860003022C2E701202EE69B463BE7445D0000A4
:10187000CDCCCCCCFFF716BC2DE9F041058A033165
:10188000043D4E198046B6FBF5F6FFF729FCA0B3E0
:10189000F6B24FF48073013E04468380C580C0F8E1
:1018A00000802BD00346002508E06279AE4202F1A9
:1018B000010262713860C0F800801FD040461F46A8
:1018C000FFF70EFC013503460028EED16779791E3B
:1018D00017D02246013399421268FBD1D2F800801A
:1018E0005FB12668002501E034463668214640464F
:1018F0000135FFF71BFCAF42F6D800242046BDE8B7
:10190000F08120682146FFF711FCF6E70121043041
:10191000FFF798BB2DE9F041012104460430FFF7A1
:101920009DFB10F0FF0301D0BDE8F0816779791EBF
:1019300016D02246013399421268FBD1D2F80080BA
:10194000002FF1D02668002501E034463668214694
:1019500040460135FFF7EAFBAF42F6D8BDE8F0811B
:1019600020682146BDE8F041FFF7E0BB2DE9F843D0
:101970008846C788417907FB01F1043902EB030C63
:101980001E1D6145154638BFCD1AB7420446B6FB49
:10199000F7F207FB126002D8013A2468FCD13E1A24
:1019A000AE4228BF2E469DB14FF000090430AD1B5A
:1019B000324608EB0901204404F0E8F8AF42B14494
:1019C00024683E464FF0000028BF2E46002DEDD182
:1019D000BDE8F8832DE9F8430446C788407907FB42
:1019E00000F0043802EB030C1E1D6045154638BF9D
:1019F000C51AB7428846B6FBF7F107FB116202D859
:101A000001392468FCD1BE1AAE4228BF2E469DB1D2
:101A10004FF00009111DAD1B3246214408EB0900AF
:101A200004F0B4F8AF42B14424683E464FF00002DF
:101A300028BF2E46002DEDD1BDE8F8838268002333
:101A4000936082681361826853618268D3608268A0
:101A5000536082681360704710B584B002780D4CF3
:101A60000D4B8DF800208268B0F804C053F8213087
:101A70008DF8062054F82110C2684469006902906C
:101A8000ADF804C003948DF807206846984704B069
:101A900010BD00BF840600208C0600202DE9F04F09
:101AA000164690F800A0534A42F82A60524A42F87B
:101AB0002A304B7B81B080460C4663B94F4A002EDA
:101AC000534608BF3246214608F1040001B0BDE884
:101AD000F04F00F01BBB0B68494FDFF828B103F54E
:101AE000E0724FF0A04340F20C6143F822106268AC
:101AF00002F5E0724FF0010943F8221021681F2916
:101B000084BF01F01F0103F5407301228A40C3F82E
:101B1000082563681F2B8ABF3A4A4FF0A04203F0A2
:101B20001F0309FA03F3C2F8083523684FF0A042F7
:101B300003F5E07340F20D6142F82310636803F58A
:101B4000E07347EA090742F823104FF48070B84762
:101B5000002562681F2A8ABF5B464FF0A04302F04F
:101B60001F01D3F8103598BF1146CB40DB073DD499
:101B700023681F2B8ABF5A464FF0A04203F01F0371
:101B800009FA03F3C2F80C354FF48070B8472368A4
:101B90001F2B86BF03F01F035A464FF0A04209FADD
:101BA00003F3C2F808354FF480700135B847092DAA
:101BB000CFD162681F2A8ABF12494FF0A04102F0BC
:101BC0001F02012303FA02F2C1F80C254FF48070C2
:101BD000B84762681F2A86BF0A4902F01F024FF009
:101BE000A04101239340C1F8083567E7002DE1D1FA
:101BF00064E700BF8C06002084060020591A00000C
:101C0000605D00000003005030B50A4B0A4C53F8E9
:101C1000213054F82110027885B0D0E901548DF8B4
:101C20000020C26801958DF80840039268469847E5
:101C300005B030BD9C0600209406002030B50A4B4C
:101C40000A4C53F8213054F82110027885B0D0E9BD
:101C500001548DF80020C26801958DF80840039268
:101C60006846984705B030BD9C06002094060020C9
:101C7000F0B5184B067843F82620174B0446487FEA
:101C800098551546154A8E46096942F8261022785D
:101C90009F5CBEE80F0089B0EC46ACE80F009EE800
:101CA0000F008CE80F0004964FB1002D0C4A6946D6
:101CB00008BF2A46201D00F0B3FF09B0F0BD002D7B
:101CC000084A694608BF2A4604F10C0000F010FDDE
:101CD00009B0F0BD9C060020A40600209406002058
:101CE000091C00003D1C0000014B1B68184700BF89
:101CF000A806002038B50C4B984213D100200D46A1
:101D0000FFF784F9094B1C7924B10020FFF786F90D
:101D1000112038BD012220461D601A71FFF77EF99F
:101D2000204638BD002038BD00200040A806002015
:101D3000034B984203D1034B00221A601A7170477B
:101D400000200040A80600200B7B0246032B22D86F
:101D5000DFE803F0292317028868194B984228D03E
:101D6000886840F20223984215D1D2F84C3549696F
:101D7000994210D000200621C2F80005C2F80015D3
:101D80007047D2F84C3508699842F3D1D2F83C3507
:101D900049699942EED101207047D2F83C35096972
:101DA0009942E7D1F7E7D2F84C3509699942E1D178
:101DB000F1E7D2F84C3508699842DBD1D0E700BF93
:101DC00000020400F0B54FF040238DB0D3F8242179
:101DD00052B10022C3F82421D3F824210592059A98
:101DE000D3F80421002A78D04FF040245D4DD4F878
:101DF0000431002B41D00026C4F80461D4F804312A
:101E0000049305F1400E049B95F86270BEE80F0044
:101E10000DF11C0CACE80F00DEF80030CCF80030FF
:101E2000002F7CD0C4F86061D4F860310293029B2B
:101E3000C4F85C61D4F85C310393039B95F864604B
:101E400049494FF040230022C3F80022EA63C3F857
:101E500008134FF04022D2F8C434C2F8C4349A07B1
:101E60002CD501238DF818300EB985F86360D5E9BB
:101E70000D3106A898470DB0F0BDC4F84831D4F82C
:101E8000482195F840300192019A002B35D105F197
:101E9000400EBEE80F000DF11C0CACE80F0095F8E9
:101EA0006460DEF80030CCF80030002ED1D12E4B2B
:101EB000C4F80062EE63C4F80833CAE713F0050FF4
:101EC00003D002238DF81830CEE795F86230002B4E
:101ED00045D004238DF81830C6E7224A0221D06B82
:101EE000C3F80803D163D06BC3F80403012182F85F
:101EF0006210196259610DB0F0BD1B4B4FF40071B7
:101F000040F20222C4F80012EA63C4F80833EA6B14
:101F1000C4F804230123A36023620DB0F0BD05F1D2
:101F200034012046FFF710FF80F00100C0B285F8B1
:101F30006200C4F86071D4F860310293029BC4F867
:101F40005C71D4F85C3195F864600393039B002EB8
:101F50003FF476AF00283FF47CAF064670E78DF87B
:101F6000183081E7B006002002029C01F0B5644BF6
:101F7000D3F824218DB052B10022C3F82421D3F824
:101F800024210592059AD3F80421002A74D05C4CD0
:101F90005C4DD4F80431002B3FD00026C4F8046116
:101FA000D4F80431049305F10C0E049B95F82E70BF
:101FB000BEE80F000DF11C0CACE80F00DEF800309D
:101FC000CCF80030002F79D0C4F86061D4F86031CB
:101FD0000293029BC4F85C61D4F85C310393039BC9
:101FE00095F83060464B48490022C3F80022AA60A9
:101FF000C3F80813424AD2F8C434C2F8C4349A076A
:102000002BD501238DF818300EB985F82F60D5E94E
:10201000003106A898470DB0F0BDC4F84831D4F897
:1020200048212B7B0192019A002B35D105F10C0E32
:10203000BEE80F000DF11C0CACE80F0095F8306005
:10204000DEF80030CCF80030002ED3D12E4BC4F88F
:102050000062AE60C4F80833CCE713F0050F03D07C
:1020600002238DF81830CFE795F82E30002B44D09E
:1020700004238DF81830C7E7224A02219068C3F87C
:10208000080391609068C3F80403012182F82E10C0
:10209000196259610DB0F0BD1B4B4FF4007140F255
:1020A0000222C4F80012AA60C4F80833AA68C4F86F
:1020B00004230123A36023620DB0F0BD294620460E
:1020C000FFF742FE80F00100C0B285F82E00C4F890
:1020D0006071D4F860310293029BC4F85C71D4F84B
:1020E0005C3195F830600393039B002E3FF47AAF88
:1020F00000283FF47FAF064674E78DF8183083E779
:1021000000300040B006002002029C012DE9F84F8B
:1021100090F804A0DFF80881342707FB0AF708EBE2
:1021200007069B4696F82D30002B63D1384B0546A9
:102130000C46006853F82A109146FFF7DBFD002893
:1021400062D148F80790B060C6F804B086F82F0056
:1021500086F83000637B86F8323023681F2B86BFF9
:1021600003F01F032B4A4FF0A04203F5E07340F247
:102170000C6142F8231063681F2B86BF03F01F0316
:10218000244A4FF0A04203F5E07340F20C6142F89C
:102190002310D4E900212B68C3F80825C3F80C15D7
:1021A000A268C3F82425B9F1000F1BD02A68237B4D
:1021B00042F3073100294FEA12321EDB01F1604180
:1021C0005B0101F56141DBB281F800332B68124CF1
:1021D00043F307325209C3F30433012101FA03F335
:1021E00044F82230342303FB0A88012388F82D3079
:1021F000BDE8F88F0820BDE8F88F084902F00F020B
:102200005B01DBB28B54E1E71120BDE8F88F00BF22
:10221000745D00000003005000E100E014ED00E0F8
:10222000B00600200279064B01684FF0340C0CFB1D
:10223000023306200222C1F8000583F82D207047E2
:10224000B00600202DE9F04385B090F804E05D4D24
:102250009DF8304000684FF0340C0CFB0E5C002CF5
:102260004FF000048CF82E4002F0604414BF202789
:102270000027B4F1005F4FD1534CC0F808439CF8DD
:102280002F6006F0FF04002E40F08C800EEB4E060F
:102290000EEB860605EB86084FF001098CF82F90AF
:1022A00088F80C40C0F88815C0F804418CF80D106F
:1022B000D0F8041101910199C0F82441D0F82411FB
:1022C000029102998CF83040C0F85045CCE90434B2
:1022D000C0F84045CCE90624C0F84425B600C0F853
:1022E0004835EFB94FF40073C0F8003240F20223D2
:1022F000CCF808304FF48274342303FB0EF3012131
:1023000001628160EA582B4422B39B68C0F8043311
:10231000002005B0BDE8F083102005B0BDE8F083D3
:102320002A4B4FF48072C0F80022CCF80830C0F875
:102330004841D0F848310093009B4FF4A474DBE788
:10234000C0F82431D0F824310393039B01624FF489
:1023500082744161044403E0D0F82421002AEFD1C3
:102360002368002BF8D03422D0F8C434C0F8C43429
:1023700002FB0E5E00228EF82F20DBB113F0010F5E
:1023800018BF4FF4024048F2012208BF032013F0A7
:10239000020F18BF104648F2022213F0040F18BFB4
:1023A0001046BAE7DCF80830C0F80433112005B055
:1023B000BDE8F083A919FFF7C7FC002814BF00206F
:1023C0000320AAE7B006002002029C0100020400DC
:1023D0002DE9F04305794F4E00684FF0340E0EFBA7
:1023E00005FE06EB0E0C00248CF82E4002F0604433
:1023F000B4F1005F85B06ED1474CC0F808439CF83B
:102400002F7007F0FF04002F69D105EB450705EB9E
:10241000870706EB87094FEA870801278CF82F709A
:1024200089F80C70C0F88815C0F804418CF80D10BC
:10243000D0F8041101910199C0F82441D0F8241179
:1024400002910299C0F85045CCE90434C0F84045E7
:10245000C0F83425C0F838354FF48053C0F8003246
:1024600040F20223CCF80830CCE906248CF8304046
:102470000762076056F80E3053B1DCF80830C0F838
:102480000433204605B0BDE8F083D0F8242172BBA8
:10249000D0F80431002BF8D03422D0F8C434C0F87E
:1024A000C43402FB0565002285F82F2043B313F0E6
:1024B000010F18BF4FF4024048F2012208BF032069
:1024C00013F0020F18BF104648F2022213F0040F57
:1024D00018BF1046D6E7102005B0BDE8F083DCF841
:1024E0000830C0F80433112005B0BDE8F083C0F80F
:1024F0002431D0F824310393039B07624761C7E777
:1025000006EB0801FFF720FC002814BF0020032081
:10251000B8E700BFB006002002029C0100000000E6
:1025200010B5714AD2F8043399058AB068D5D2F84B
:102530002431002B64D00023C2F82431D2F8243196
:1025400001934FF40171694B0198C2F8081393F895
:10255000291009B901215160634902228DF8182020
:10256000D1F88024C1F880249FED5D7B9969D868FB
:10257000CDE9081283ED067BD3E90012079006A887
:102580009047594AD2F81C31C3B1584B5869196A5F
:1025900088426AD993F8281001F0FF00002964D11D
:1025A000C2F81C01D2F81C11039103999C68186AA7
:1025B000196A205C01311962C2F81C054A4AD2F836
:1025C0004431DBB10021494BC2F84411D2F8440137
:1025D00093F829100090009809B1012111609A69BF
:1025E00062B1D8685C6A00210122CDE907049961D3
:1025F0008DF8182006A8D3E9001290470AB010BD44
:10260000394AD2F804335B07BBD5D2F80831002B26
:10261000B7D0364B996900293ED00021C2F8081185
:10262000D2F8081104910499D868596AD2F818258B
:1026300042545A6A996901325A625A6A8A42A0D14E
:10264000DA69002A31D09A611A69D8685C6ADA605E
:10265000002101220894D961596207905C681968C9
:102660008DF8182006A8A0478BE71F4A0020C2F863
:102670001C01D2F81C210292029A5A69002A9DD0AC
:10268000D3E901215C698DF81800CDE90714586180
:10269000196806A8904791E7C2F80811D2F8080116
:1026A00005900598D2F81825C7E793F8292012B9A4
:1026B0000D4A012151600C4A4FF40171C2F8081310
:1026C000D8685C6A0021012299618DF81820D3E94D
:1026D0000012CDE9070406A8904752E7AFF3008047
:1026E000000000000000000000200040180700204B
:1026F0002DE9F041714E90F804802C2303FB086310
:1027000082B093F82A30002B40F0988005460C46A2
:1027100000686B491746FFF7EDFA002840F08A8001
:102720002368591C19D01F2B4FF001028ABF65493D
:102730004FF0A04103F01F0302FA03F3C1F808357C
:1027400023681F2B86BF03F01F035E4A4FF0A04291
:1027500003F5E073032142F8231063685A1C0BD081
:102760001F2B86BF03F01F03564A4FF0A04203F50C
:10277000E073002142F823102B68A269C3F82425D6
:10278000227D637D13432A68C2F86C35D4E90012B8
:102790002B68C3F81425C3F80C15237D012B58D0E2
:1027A0002C2303FB08F3F21857602269F25077B329
:1027B0002A68237F0021C2F81C11D2F81C21009244
:1027C000009A2A68C2F84411D2F844210192019A71
:1027D0002A683D49C2F804132A6842F307310029E8
:1027E0004FEA12322EDB01F160415B0101F56141DC
:1027F000DBB281F800332B68344C43F307325209C3
:10280000C3F30433012101FA03F344F822302B68A7
:102810000422C3F800252C2303FB086601220023B1
:10282000C6E9063386F82930736186F82A2002B09B
:10283000BDE8F081112002B0BDE8F081082002B0AF
:10284000BDE8F081224902F00F025B01DBB28B543C
:10285000D1E7A368591C0BD01F2B86BF03F01F03C1
:1028600018494FF0A04103F5E073002241F82320FE
:10287000E3685A1C1AD01F2B8ABF12494FF0A0419F
:1028800003F01F03012202FA03F3C1F80835E368DD
:102890001F2B88BF03F01F0303F5E0738CBF0949AA
:1028A0004FF0A041032241F82320E3682A68A16881
:1028B000C2F80835C2F8101572E700BF18070020EB
:1028C00021250000000300508000020000E100E02C
:1028D00014ED00E0F8B503680779394C0022C3F81D
:1028E00000252C2303FB07435B6883B10368354A4B
:1028F000C3F808230268344D42F307335B09C2F37F
:1029000004322033012101FA02F245F82320036842
:102910004FF0FF3CD3F80C65D3F81455D3F80825D5
:10292000D3F81015C3F814C5C3F80CC50368664581
:10293000C3F808C5C3F810C50CD01F2E86BF06F01B
:102940001F06224B4FF0A04306F5E0764FF0020C35
:1029500043F826C06E1C0BD01F2D86BF05F01F0547
:102960001A4B4FF0A04305F5E075022643F82560A9
:102970004D1C0BD01F2986BF01F01F01134B4FF0D8
:10298000A04301F5E071022543F82150531C0BD000
:102990001F2A86BF02F01F020C4B4FF0A04302F526
:1029A000E072022143F822100068FFF7C1F92C23DE
:1029B00003FB0744002384F82A306360F8BD00BF9E
:1029C000180700208402020000E100E0000300502C
:1029D0002DE9F041334C90F804E02C2303FB0E4327
:1029E0008446586984B000284ED15A6199601862B3
:1029F00083F82800DCF80020C2F81C01D2F81C2162
:102A00000292029ADCF8002001219160DCF800209B
:102A10009D68C2F81C01D2F81C1101910199196A34
:102A20006E5C196A01311962C2F81C655A6812B1EC
:102A300004B0BDE8F0815E691A6ADCF800109642C5
:102A40001BD9074602E093F828200ABBD1F81C21C5
:102A5000002AF8D0C1F81C71D1F81C210392039A06
:102A60001A6A15F802801A6A01321A62C1F81C85C6
:102A70001A6A9642EAD8DCF80010D1F81C31002B13
:102A8000FBD00123CB6004E0112004B0BDE8F0814D
:102A90000F202C2303FB0E440023636104B0BDE828
:102AA000F08100BF1807002010B55B4BD3F824213C
:102AB0008AB0002A58D00022C3F82421D3F8241168
:102AC000049102228DF818200499544AD3F88014F6
:102AD000C3F880149FED4E7B0991D3F83C45D06834
:102AE00082ED067BCDE90704D2E9001306A89847DA
:102AF000494BD3F8442152B10021484AC3F844114C
:102B0000D3F84401916903900398002961D1424BA5
:102B1000D3F8202162B10020C3F82001D3F820218E
:102B2000029201213D4A029CD9605169002943D19A
:102B3000394BD3F85821AAB10020C3F85801D3F873
:102B40005811364A01910199516959B1D3F84C4550
:102B50008DF81800D2E901315061CDE9071406A8BB
:102B6000116898470AB010BDD3F810110029BFD0E2
:102B7000C3F81021D3F81011284C05910599A169CB
:102B8000D3F83C058842B3D1E169002933D0C4E9C8
:102B90000612D3F8002222F02002C3F80022E268D5
:102BA0000792012122698DF8181008906368216846
:102BB000E26006A898479BE7D3F84C458DF81800CB
:102BC000D2E901315061CDE9071406A81168984790
:102BD000AEE79FED0F7BD3F83C45D0684FF0010C7A
:102BE000CDE9070482ED067BD2E900138DF818C009
:102BF00006A898478BE7E268A1610123CDE9072089
:102C00008DF8183006A8D4E90013984770E700BF84
:102C100000000000000000000020004048070020E5
:102C20002DE9F04307797D4E07EBC70306EB8303DD
:102C300087B093F82030002B40F0B18004460D4659
:102C4000006877499046FFF755F8002840F0A380C8
:102C50002B68591C4FEAC70919D01F2B4FF00102EE
:102C60008ABF70494FF0A04103F01F0302FA03F33B
:102C7000C1F808352B681F2B86BF03F01F03694A74
:102C80004FF0A04203F5E073032142F823106B6874
:102C90005A1C0BD01F2B86BF03F01F03614A4FF055
:102CA000A04203F5E073002142F823102368AA69CB
:102CB000C3F824252B7D6A7D1A432368C3F86C254D
:102CC000D5E900312268C2F80C35C2F814152B7D05
:102CD000012B6FD009EB070206EB8203C3F80480D7
:102CE0002B6946F82230B8F1000F43D021682B7FC2
:102CF0000022C1F81021D1F8101101910199216829
:102D0000C1F82021D1F82011029102992168C1F85F
:102D10002421D1F82411039103992168C1F8442199
:102D2000D1F84411049104992168C1F85821D1F8CF
:102D300058210592059A22683B49C2F8041322687B
:102D400042F3073100294FEA12322CDB01F16041D6
:102D50005B0101F56141DBB281F800332368334D3B
:102D600043F307325209C3F30433012101FA03F399
:102D700045F822304F4406EB8706226801210023E4
:102D800086F820100821C2F80015C6E906337361E1
:102D900007B0BDE8F083112007B0BDE8F08308203C
:102DA00007B0BDE8F083224902F00F025B01DBB2FD
:102DB0008B54D3E7AB68591C0BD01F2B86BF03F095
:102DC0001F0318494FF0A04103F5E073002241F8BA
:102DD0002320EB685A1C1AD01F2B8ABF11494FF0D1
:102DE000A04103F01F03012202FA03F3C1F80835E2
:102DF000EB681F2B88BF03F01F0303F5E0738CBF44
:102E000008494FF0A041032241F82320EB682268D3
:102E1000A968C2F80835C2F810155BE7480700201A
:102E2000A92A0000000300501003420000E100E066
:102E300014ED00E0F0B50579484C05EBC50304EB53
:102E4000830383B05B68EE0083B10368444AC3F830
:102E500008230268434F42F307335B09C2F304328D
:102E60002033012101FA02F247F823200168D1F84A
:102E7000003223F02003C1F80032036801225A60B7
:102E800003680021C3F85811D3F858310193019B0E
:102E90000368DA600268D2F85831002BFBD00023B7
:102EA000C2F8003503684FF0FF3ED3F80CC5D3F8E5
:102EB0001475D3F80825D3F81015C3F80CE5C3F83A
:102EC00014E50368F445C3F808E5C3F810E50DD030
:102ED000BCF11F0F86BF0CF01F0C234B4FF0A0431B
:102EE0000CF5E07C4FF0020E43F82CE07B1C0CD07C
:102EF0001F2F86BF07F01F071B4B4FF0A04307F59E
:102F0000E0774FF0020C43F827C04F1C0BD01F296D
:102F100086BF01F01F01144B4FF0A04301F5E07193
:102F2000022743F82170531C0BD01F2A86BF02F0E2
:102F30001F020D4B4FF0A04302F5E072022143F84F
:102F400022100068FEF7F4FE354404EB85040023EC
:102F500084F82030636003B0F0BD00BF4807002054
:102F60001003420000E100E00003005001F0604C5B
:102F7000BCF1005F30D170B590F804E0264C0EEB48
:102F8000CE0C04EB8C0C0346DCF8140082B04FEA44
:102F9000CE0500283BD1CCF81420CCF808101A68D4
:102FA000C2F82001D2F820210192019A1A68C2F8D1
:102FB0005801D2F858210092009A1A68DCF814607F
:102FC000C2F84415C2F848651A6801219160DCF81E
:102FD00004201AB102B070BD102070471A6800E0DA
:102FE000C0B9D2F82011D2F858010029F8D088B918
:102FF0000121D1601B68D3F85821002AFBD005EBD2
:103000000E0304EB830300225A6102B070BD11204D
:1030100002B070BD0F20F2E74807002020B1034B3B
:10302000800143F001031847704700BFB060000003
:1030300000B593F800C00F4883B0531C00220092E3
:10304000DBB24A1E6146FFF7FDF810B903B05DF828
:1030500004FB0948094B0A49C01AC008000440F0A3
:103060000100FDF75FFCFDF71FFB0028FBD16FF0AF
:103070000100EBE7BC6000008C6200006C620000A5
:103080008C5D000070B584B01E788DF80F000124AF
:103090000094234615460C4617480DF10F023146A1
:1030A000FFF7D0F840B91448EBB222463146FFF79B
:1030B0008FF990B904B070BD1048114B1149C01A76
:1030C000C008000440F00100FDF72CFCFDF7ECFA0D
:1030D0000028FBD16FF00100ECE70848084B0A49D3
:1030E000C01AC008000440F00100FDF71BFCFDF70A
:1030F000DBFA0028FBD1EDE7BC6000008C62000029
:103100006C620000B85D0000E05D0000000000009F
:1031100010B59FED0F7B84B0022100234FF0CC74DB
:10312000CDE902410C481A4669468DED007BFEF759
:10313000B5FC20B90948FFF775F804B010BDFDF7DC
:103140001FFF0648FFF76EF804B010BDAFF3008014
:10315000040000001D000000B8600000BC6000001A
:103160000B46053110B50246072979D8DFE801F092
:103170001425364758697804414B42484249C01AE1
:10318000C0080004022340F00100FDF795FCFDF7A4
:103190008BFA0028FBD1FEE7394B3A483B49C01A6D
:1031A000C00800046FF0040340F00100FDF784FC48
:1031B000FDF77AFA0028FBD1FEE7314B314834495C
:1031C000C01AC00800046FF0030340F00100FDF7CF
:1031D00073FCFDF769FA0028FBD1FEE7284B29486C
:1031E0002C49C01AC00800046FF0020340F001002F
:1031F000FDF762FCFDF758FA0028FBD1FEE7204BF3
:1032000020482549C01AC00800046FF0010340F0AF
:103210000100FDF751FCFDF747FA0028FBD1FEE75E
:10322000174B18481D49C01AC00800044FF0FF335F
:1032300040F00100FDF740FCFDF736FA0028FBD115
:10324000FEE710480E4B1649C01AC008000440F0B3
:103250000400FDF7C9FBFDF727FA0028FBD110BDDC
:103260000848074C0F49001BC008000440F001004B
:10327000FDF722FCFDF718FA0028FBD1FEE700BF9E
:103280006C6200008C620000145F0000E85E0000C9
:10329000805E0000B85E00004C5E0000205E000012
:1032A000085E0000445F00002DE9F0432DED028B25
:1032B000002187B00846FDF79FF9002840F02C81D7
:1032C000FDF722F9964C974B9749E41AE408240439
:1032D00044F00200FDF726FBFDF7E6F90028FBD1DC
:1032E000924FDFF89C92FFF713FF914A914B7A605F
:1032F0003B64914A914B0125C7E9112338461923B4
:10330000BB733D7300F038FB8D48082303718D4B70
:103310000360394600F010FF44F003048A4B89F83B
:103320000050494628463A46C9F8023001F040FEAE
:1033300086492046FDF7F6FAFDF7B6F90028FBD1DD
:103340009FED838A834DDFF8E48103264146012007
:1033500000F070FE01468048FFF702FF78494246C0
:10336000012001F007F9B9F8042079684FF47A7365
:1033700003FB02021046BB6C03929847039A7749FD
:103380002046FDF731FBFDF78FF90028FBD171498D
:1033900043460DF11702012001F060F90146704823
:1033A000FFF7DEFED5ED027AF5EEC07AF1EE10FA07
:1033B00000F1A8806B4A6C49BDEEE77AF5EEC07A61
:1033C000F8EEC76AF1EE10FACCBF77EEE67A76EE49
:1033D000E77A17EE103A67EE887A2046FDEEE77A34
:1033E000CDED007AFDF7D8FBD5ED037AF5EEC07A86
:1033F000F1EE10FA7CD45B4A5C49BDEEE77AF5EE5B
:10340000C07AF8EEC76AF1EE10FACCBF77EEE67A32
:1034100076EEE77A17EE103A67EE887A2046FDEEF0
:10342000E77ACDED007AFDF7B7FBD5ED047AF5EE3E
:10343000C07AF1EE10FA52D44A4A4D49BDEEE77A0D
:10344000F5EEC07AF8EEC76AF1EE10FACCBF77EE6F
:10345000E67A76EEE77A17EE103A67EE887A20463B
:10346000FDEEE77ACDED007AFDF796FBD5ED057A16
:10347000F5EEC07AF1EE10FA28D43A4A3D49BDEE95
:10348000E77AF5EEC07AF8EEC76AF1EE10FACCBF33
:1034900077EEE67A76EEE77A204667EE887A17EEE0
:1034A000103AFDEEE77ACDED007AFDF775FB2A784C
:1034B00031492046FDF798FAFDF7F6F80028FBD1D0
:1034C000013E16F0FF067FF441AFFEE7BFEE007A43
:1034D000F4EEC77AF1EE10FACFDD284ACEE7BFEE60
:1034E000007AF4EEC77AF1EE10FAA5DD234AA4E7DC
:1034F000BFEE007AF4EEC77AF1EE10FA7FF77BAFF9
:103500001E4A79E7BFEE007AF4EEC77AF1EE10FAC0
:103510007FF750AF194A4EE7FDF732FDD0E600BF06
:103520008C6200006C620000745F00006C07002079
:103530001C00002085300000313000001D300000EC
:10354000BC070020050201002C016400905F000010
:103550000000C842C4070020F45F000008600000BB
:1035600024600000705D00003860000050600000C2
:103570006460000078600000946000003460000027
:10358000DC07002091F9283091ED0E7ADFED5E6ABC
:103590009FED5E6A9FED5E5AF6EE007A27EE277A7F
:1035A00007EE903A37EE667AB1F92630F8EEE77A10
:1035B00006EE903A67EE877AF8EEE66A67EE877A6B
:1035C00066EE876A67EE867A9FED526A8B8C77EE9D
:1035D000A67A06EE903A67EE867AB7EE006A67EE54
:1035E000857AF8EE666A77EE867A82B066EEA76A2A
:1035F0000190FDEEE67A17EE903A002B7FD091F91C
:103600002E309FED450ADFED454ADFED453A9FED4F
:10361000454A05EE903AB1F92C3006EE103AF8EE34
:10362000E55AB8EEC66A67EE077AB1F92A3065EE58
:10363000805A26EE077A65EEA75A06EE103A37EE64
:10364000077ADFED397AB1F9323037EE257AB8EE04
:10365000C66AF5EE005A26EE276A27EE257A07EEAF
:10366000900ADFED325AF8EE677A36EE077A35EED9
:10367000E76A27EE247ADFED2E5ADFED2E4A36EE8A
:10368000477A07EE903A27EE257AB1F9303087EE87
:10369000266A06EE903A91F8343007EE103A91F926
:1036A0002F30F8EEE77A05EE903AF8EEE66AB8EEDB
:1036B000C77A66EE856A27EE007A26EE245A9FEDD9
:1036C0001E0A67EE867AF8EEE55A67EE867A65EEB0
:1036D000805A25EE050A66EE866A67EEA37A20EE2A
:1036E000050A77EEA67A27EE000A37EE800A30EE5A
:1036F000250A20EE040A30EE060A02B070479FED5C
:103700000F0A02B0704700BF00007A4700008038FF
:10371000000000380000003600000037000080394B
:10372000000000300000803D00008047000080491C
:103730000050C3450000803B000000430000000033
:10374000002937D030B50D6C83B00C4665B34B6C97
:1037500053B38B6C43B310F0800F4B7B14BF00222C
:10376000102293421DD04A734B6801220DF10701CC
:10377000F320A84784F84C00C8B99DF80730627B55
:10378000656C23F0100302F010021A438DF8072035
:1037900063680DF1070101227320A84784F84C00EB
:1037A00028B9002003B030BD4FF0FF30FAE76FF0CA
:1037B0000100F7E74FF0FF30704700BF70B5304BA6
:1037C000DFED305A9FED305ADFED304AA0B007EE02
:1037D000900A9C4603F1400420AB03EB8106B8EE4F
:1037E000677A01238B4077EE655A07EE902A07EE41
:1037F000103ABCE80F006D460FC5BCE80F000FC5BE
:10380000BCE80F000FC59CE80F0085E80F000FCC47
:103810000DF1400EAEE80F000FCCAEE80F000FCC5C
:10382000AEE80F0094E80F00F8EEE77AF1EE046AD4
:10383000B8EEC76A8EE80F0067EEA67A16ED207A1A
:10384000DFED136A16ED104A77EEA67AC7EE056A29
:10385000B7EE000A76EE806A84EE057A67EEA67A05
:1038600037EE007AC5EEA76A27EE247A67EE067A6D
:1038700036EE807A67EE277A80EE270A20B070BD98
:10388000D0600000000000440000C842BD3706348C
:103890000080A7442DE9F04186B00023CDE9013333
:1038A000CDE903330593002A63D0D2F84080144653
:1038B000B8F1000F5DD0576C002F5AD0936C002BDD
:1038C00057D00546002854D00E46002951D0127B0F
:1038D0009AB100780B788DF804008DF80530636894
:1038E00001220DF10501B847002884F84C0018BFEB
:1038F0006FF0010006B0BDE8F08190F90030617B07
:10390000002BA8BF10229142037827D0627363680E
:1039100001220DF10301F320C04784F84C0028BBBD
:103920009DF80330627B676C23F0100302F01002F5
:103930001A438DF80320636801220DF103017320FF
:10394000B84784F84C0088B928783378676C8DF8CC
:10395000053000F07F008DF80400C0E732788DF864
:10396000052003F07F008DF80400B8E76FF0010038
:10397000C0E74FF0FF30BDE770B58CB0E022B62352
:103980008DF802208DF803300446002800F0948161
:10399000056C002D00F09281416C002900F06081DF
:1039A000816C002900F09281037B002B00F0F980EC
:1039B0000DF1030122460DF10200FFF76BFFA36C2E
:1039C0006168054642F210709847002D40F0F9807A
:1039D000237B002B00F01581A36C294642F2107066
:1039E0009847256C002D00F03F81636C002B00F0A0
:1039F0003B81A36C002B00F03781237B002B00F070
:103A0000F880636801222146D020A84784F84C0042
:103A1000002840F0E9802378612B18BF6FF0020581
:103A200040F0D480256C8DF80400002D00F01C813E
:103A3000636C002B00F01881A36C002B00F0148144
:103A4000237B002B00F013816368012201A9F02081
:103A5000A84784F84C00002840F0C680256C9DF8EB
:103A60000430A360002D00F0FF80636C002B00F099
:103A7000FB80A36C002B00F0F780237B002B00F071
:103A800009816368172201A98A20A84784F84C009D
:103A9000002840F0A980256C002D00F0E580636CC3
:103AA000002B00F0E180A36C002B00F0DD80237B75
:103AB000002B00F0118163680E220DF11B01E12043
:103AC000A84784F84C00002840F08E80256C002D1B
:103AD00000F0CA80636C002B00F0C680A36C002B42
:103AE00000F0C280267B002E00F00B81002063686E
:103AF00005220DF12901A847054684F84C0000284D
:103B000072D1BDF823209DF81C30E283DDF8162029
:103B1000BDF812109DF81D0022639DF81A2084F84C
:103B2000342003F00F0249BA42EA0012E1852282F2
:103B30009DF81B10BDF81E20A2821B099DF82720AE
:103B4000627643EA01139DF80620BDF820106382D7
:103B5000E1829DF82230BDF8041084F822209DF8FF
:103B60000C2023762184BDF82530029984F8282082
:103B7000DDF80E206162C4F82A2063839DF82B20B3
:103B80009DF92D309DF828102177C2F301121B11E9
:103B900084F83C209DF8292084F83D2084F83E30AC
:103BA00014E04368012201A9F320A8476FF0010542
:103BB00084F84C0028B99DF8043003F010036373B7
:103BC000F6E6A36C002142F21070984728460CB02C
:103BD00070BD30466368266C05220DF12901B0479F
:103BE00084F84C000028F1D06FF0010528460CB095
:103BF00070BD2146D020FFF7A3FD0546E0B9256C36
:103C0000FFE6266C5EB3636C4BB3A36C002B00F035
:103C1000838001A963680122F320B047014684F83C
:103C20004C00A0B99DF80430A26C03F0100363733C
:103C300042F210709047D4E6266C63680122214658
:103C4000D020B04784F84C000028BFD0CCE72946EC
:103C5000A36C42F2107098476FF00105B6E7294651
:103C6000A36C42F2107098474FF0FF35AEE7214643
:103C7000F020FFF765FD054608B9256CE4E6266CE3
:103C80006368012201A9F020B04784F84C000028A5
:103C90009CD0A9E721468A20FFF752FD266C636875
:103CA00001A9054617228A20B04784F84C00002855
:103CB0009AD1002D8AD1EEE6836CFFDE836C294613
:103CC00042F2107098474FF0FF357FE742F21070D4
:103CD00088474FF0FF3579E72146E120FFF730FDB7
:103CE000266C63680E2205460DF11B01E120B047EA
:103CF00084F84C0000287FF477AF002D3FF4E6AE47
:103D000064E721463046FFF71BFD054600287FF497
:103D100060AF256C8020EAE6294642F21070A84781
:103D20004FF0FF3552E700BF2DE9F04F89B0002575
:103D3000CDE90355CDE9055501900795002B00F01D
:103D40005F811C461B6C002B00F05A81636C002BBA
:103D500000F05681A36C002B00F0528117460246FA
:103D6000002800F04D818A46002900F049817B1E21
:103D7000092B00F25081284601F1FF3990460DF1E0
:103D80000D0601250097237B002B00F0DA80009FB1
:103D900098F8002099F8013006F8012CAF423370F2
:103DA000A9B200F0C98008AB03EB45066B1C9BB2BF
:103DB0001AF805C006F813CC4A1C9F4292B240F292
:103DC00032810DF1200C0CEB420E1AF803800EF834
:103DD000138C01F1020C1FFA8CFE77454FEA420961
:103DE00040F21C8108AA02EB4E081AF80EE008F80F
:103DF00013EC01F1030E1FFA8EFE774540F20E819F
:103E000002EB4E081AF80EE008F813EC01F1040E6C
:103E10001FFA8EFE774540F2018102EB4E081AF838
:103E20000EE008F813EC01F1050E1FFA8EFE77453F
:103E300040F2F48002EB4E081AF80EE008F813EC9A
:103E400001F1060E1FFA8EFE774540F2E78002EB85
:103E50004E081AF80EE008F813EC01F1070E1FFAED
:103E60008EFE774540F2DA8002EB4E081AF80EE03B
:103E700008F813EC01F1080E1FFA8EFE774540F2A8
:103E8000CD8002EB4E0E019A9AF80980555D0EF82E
:103E9000138C9F4206F8145C4ED9019D09F1200253
:103EA0006A441FFA8CFCEB5C02F8143C674543D96A
:103EB00008AB03EB4C0315F80C2003F8142CCB1CB7
:103EC0009BB29F4238D908AA02EB4302EB5C02F88E
:103ED000143C0B1D9BB29F422ED908AA02EB430251
:103EE000EB5C02F8143C4B1D9BB29F4224D908AAFC
:103EF00002EB4302EB5C02F8143C8B1D9BB29F4229
:103F00001AD908AA02EB4302EB5C02F8143CCA1D62
:103F100092B2974210D901F1080308A901EB4201BE
:103F20009BB2AA5C01F8142C9F4205D908AA02EBA7
:103F300043036A7A03F8142C00284CD009B0BDE87A
:103F4000F08FD4F840B098F80020BBF1000F54D0A7
:103F5000616C002951D0A16C00294ED012F0800F65
:103F6000617B08BF1023994233D0637301226368D9
:103F70000DF10B01F320D84784F84C00002845D1FF
:103F80009DF80B30676C23F01002637B03F0100385
:103F900013438DF80B30012263680DF10B01732080
:103FA000B84784F84C0098F8002060BB19F8013F2E
:103FB0003370009B02F07F02AB4206F8012C04D064
:103FC000013508F101080236DDE61F460028B5D1AB
:103FD00001E00020EAE77A00656C63689DF80C0058
:103FE000013A0DF10D01A847002884F84C0018BFD4
:103FF0006FF0010009B0BDE8F08F4FF0FF30D5E75A
:104000004FF0FF309AE76FF00100CFE798F80020FB
:104010006FF00100CAE76FF003008FE7019A555D6A
:1040200006F8145C39E7019B5B5D06F8143C002838
:1040300084D1D0E7F0B583B0742306460C468DF8E2
:1040400006301027002C74D0256C002D71D0636CC5
:10405000002B6ED0A36C002B6BD0237B002B42D0A7
:104060007420636801220DF10501A847054684F814
:104070004C0098BB9DF805309A0712D176B123F019
:10408000030306F00306334322460DF105010DF14B
:1040900006008DF80530FFF7FDFB0546284603B006
:1040A000F0BD23F003030DF1050122460DF10600DA
:1040B0008DF80530FFF7EEFBA36C6168054642F210
:1040C00010709847002DBDD0E8E7256C6368012289
:1040D0000DF105017420A84784F84C006FF001052C
:1040E000284603B0F0BD637B102B20D06368677354
:1040F00001220DF10701F320A84784F84C000028A5
:10410000E3D19DF80730627B656C23F0100302F069
:1041100010021A438DF80720636801220DF1070190
:104120007320A84784F84C000028CED1256CF420D9
:1041300097E74FF0FF35B1E72DE9F04F204B0546EB
:104140000C4693E803008DB0002303908DF8101007
:1041500005938DF818304FF0FF3B44B3266C46B3FF
:10416000636C33B3A36C23B3237B73B17420636894
:10417000012207A9B04784F84C0018B3CDB16FF005
:10418000010B58460DB0BDE8F08F21467420FFF7B3
:10419000D7FA266C8346002800F0718163680122FB
:1041A00007A97420B04784F84C000028E6D1002D00
:1041B000E7D14FF0FF3B58460DB0BDE8F08F00BF90
:1041C000C860000021469DF81CA0FFF733FF83461E
:1041D000002DEED0BBF1000FD3D1266C002E00F0E5
:1041E000B981636C002B00F0B581A36C002B00F04B
:1041F000B181237B002B00F044817120636805228C
:1042000005A9B04784F84C00002840F09281216C49
:1042100084F84D000029CCD0636C002BC9D0A36C6E
:10422000002BC6D0EA78072A0ED90723EB7094F842
:104230004D30216C43F0010384F84D300029B8D093
:10424000636C002BB5D0A36C002BB2D06A78052A22
:104250000ED905236B7094F84D30216C43F00103A7
:1042600084F84D300029A4D0636C002BA1D0A36C3E
:10427000002B9ED0AA78052A0ED90523AB7094F89E
:104280004D30216C43F0010384F84D30002990D06B
:10429000636C002B8DD0A36C002B8AD02A78052A62
:1042A00010D905232B7094F84D30216C43F0010395
:1042B00084F84D3000293FF47CAF636C002B3FF451
:1042C00078AFA36C002B3FF474AF2879082809D984
:1042D00008232B7194F84D30216C43F0010384F8CE
:1042E0004D3028799DF817306E78EA782F7803F0F2
:1042F0001F0343EA4613AE78B50005F01C0523F012
:104300001C032B438DF817309DF8153007F0070577
:1043100023F007032B438DF815309DF818309200D9
:1043200002F01C0223F01C031A43082852B200F0CA
:10433000048143015BB2002002F01F0213438DF899
:1043400018309DF8143003F07F0303430020CDE9BB
:104350000700CDE909008DF814300B9000293FF4D7
:1043600028AF636C002B3FF424AFA36C002B3FF409
:1043700020AF05AF01970DF10C0983460DF11D0625
:104380000125237B002B00F0908099F8003006F87F
:10439000013C019B052D1B783370AAB251D005F169
:1043A00030030DEB03060CAB681C03EB4505531CF7
:1043B0009BB216F81C1C05F8131C052B00F0D080CE
:1043C00000F130010DEB01000CA901EB430110F8E5
:1043D0001CCC01F813CC971CB9B205294FEA430352
:1043E00000F0C38001F1300CEC440DF1300E0EEB07
:1043F00041011CF81CCC01F813CC022A00F0B58056
:1044000016F8241C9DF818608DF8256005F8141C1A
:1044100030336B4410F8241C03F8141CBBB2052B7A
:104420000FD003F1300169440CA800EB4303022ACA
:1044300011F8241C03F8141C1CBF9DF810308DF8D3
:104440002430BBF1000F7FF49CAE656C63689DF86F
:104450001C000DF11D010922A847834684F84C0079
:1044600000287FF48CAE1AF003003FF48AAE214698
:10447000FFF7E0FD834658460DB0BDE8F08FF4200D
:1044800075E621467120FFF75BF98346002858D076
:10449000256C6368052205A97120A84784F84C00A3
:1044A000002846D184F84D006BE6D4F840B099F866
:1044B0000080BBF1000F47D0626C002A44D0A26C90
:1044C000002A41D018F0800F627B08BF10239A4267
:1044D0001DD06373012263680DF10B01F320D847EF
:1044E00084F84C0098BB9DF80B30676C23F01002E9
:1044F000637B03F0100313438DF80B3001226368D4
:104500000DF10B017320B84784F84C00F8B94FF057
:10451000000B019A08F07F0812F8013B06F8018CA5
:10452000052D019233708CD0013509F10109023655
:1045300027E7002384F84D3021E600236FF07F0049
:10454000FAE6266CF12059E64FF0FF3BE1E76FF009
:10455000010BDEE7002384F84D304FF0FF3B10E6FF
:1045600016F8243C05F8143C6BE716F8241C05F8F3
:10457000141C4DE700B5384B8E46844693E8030083
:1045800083B0ADF8041071460090002960D0002A75
:104590005ED0136C002B5BD0536C002B58D0936C07
:1045A000002B55D09EF8010005280FD905238EF861
:1045B000013092F84D30106C43F0010382F84D3019
:1045C000002845D0536C002B42D0936C002B3FD079
:1045D000887805280DD905238B7092F84D30106C22
:1045E00043F0010382F84D30002831D0536C7BB387
:1045F000936C6BB30B78052B20D848788A7800F140
:104600000801083269446A4408336B4411F8081CF5
:1046100012F8080C13F8083C0844034440F2AB704D
:1046200000FB03F3BCF1020F0BBF03F5865003F54B
:10463000A55005300D3003B05DF804FB05230B7069
:1046400092F84D3043F0010382F84D300B78D4E7F7
:10465000002003B05DF804FB506100002DE9F04F2D
:104660002DED068BB7B080460D46924600214822BC
:1046700024A81C4601F098FA24AB0C932AAB0D93A6
:1046800030AB0E93002C00F0FE83D4F84090B9F1CB
:10469000000F00F0F883636C002B00F0F483A36C30
:1046A000002B00F0F083002D00F0ED83B8F1010F36
:1046B00038D0A8F102085FFA88F8B8F1010F0ED9D6
:1046C0004FF000080127BAF1000F00F0DC838AF8F0
:1046D0000080384637B0BDEC068BBDE8F08F002671
:1046E0002F22314618A8179601F05EFA237B159603
:1046F000CDE90F66CDE91166CDE91366ADF85860D6
:10470000002B00F0B7831D206368332217A9C84728
:10471000074684F84C00002800F0DA814FF00008CA
:104720000227D0E70023CDE91733CDE919338DF8FF
:104730006C300526B9F1000F00F0F083636C002B9C
:1047400000F0EC83A36C002B00F0E883237B002BAC
:104750005FD000271D206368112217A9C8470028D1
:1047600084F84C0018BF6FF001079DF85C209DF89D
:104770005E009DF85D3000909DF85F00AB70019089
:1047800002F080039DF860002B7002F00F026A7047
:1047900002909DF86100A16803909DF8620004906A
:1047A0009DF86300059001299DF8640006909DF82E
:1047B00069C09DF865009DF86A909DF86BE09DF8D2
:1047C0006CB01ED009F02001194309F010030B430F
:1047D00059B200292B700DDB87B9A36C616842F2D6
:1047E0001070013E984716F0FF0600F04381D4F8A0
:1047F00040909FE7CDE908CE0790AFB14FF0000899
:1048000061E70BF0200119430BF010030B4359B281
:10481000DFE721461D20FEF793FFD4F840900746BE
:10482000002897D19D2096E7276C02F15A03EA1CD5
:10483000002F00F09583616C002900F09183A16C3A
:10484000002900F08D83217B002900F04D83114663
:10485000184601226368B84784F84C00002840F0ED
:104860001D816B78276C5033DBB22A1D002F00F0BE
:104870007783616C002900F07383A16C002900F03C
:104880006F83217B002900F05B83114618460122CB
:104890006368B84784F84C00002840F0FF806B78CC
:1048A000276C6433DBB26A1D002F00F05983616C02
:1048B000002900F05583A16C002900F05183217B71
:1048C000002900F02E831146184601226368B8477C
:1048D00084F84C00002840F0E180059B049A9FED8D
:1048E000793ADFED775ADFED6F6A9FED6F6A9FEDE2
:1048F000732A1B0943EA0213039A43EA023307EEC1
:10490000903A029B1809019B40EA0310009B40EA81
:104910000330E38B07EE103AF8EEE77AB8EE477A09
:1049200094F9223027EE066A67EEA66A27EE257A0A
:1049300067EE837A76EEC66A37EEC77A07EE903A6C
:10494000F8EEE77AF3EE002AB4F9203067EEA27AA7
:1049500066EEA66A214667EEA66A07EE903AF8EE82
:10496000E77A67EE277A77EEA67A87EE827AC4ED49
:104970000E7A85ED027AFEF705FE85ED030AD4ED89
:104980000E7ADFED4A5AC7EE826ADDE9062343EA72
:10499000022306EE103A94F9153007EE903AF8EE3D
:1049A000E77A94F9163067EE837AB7EE007A67EE0D
:1049B000A67AB8EE466A77EE877A07EE103ABAEE34
:1049C000C67A94F9143027EE267A27EE267A37EE47
:1049D000877A07EE903A238A05EE103AFAEEEF7ADC
:1049E000B8EE455A67EEA67A65EE222A638A77EE1C
:1049F000A27A36EE676A07EE903A94F91830FBEE29
:104A0000C77A67EE277A07EE103AE37DBAEEE57AC9
:104A100067EE867A27EE267A06EE903AF8EE666A18
:104A200026EE833A37EE037A27EE277A27EE277AA7
:104A300077EE277AF4EEE57AF1EE10FA00F393823E
:104A4000F5EEC07AF1EE10FA01D5DFED1F7AC5ED73
:104A5000047AA368012B00F08982089B94F93E2018
:104A60004FEA991040EA830009F00F01FEF7A6FE15
:104A700085ED050A95F90030002BAABF4FF000081C
:104A8000002702271FE611461846256C636801229D
:104A9000A84784F84C0000283FF4B0AE6FF001073F
:104AA000ACE600BF00000037000000390000C8423B
:104AB0000000003500008036000080350000A04571
:104AC0000000803A00008038000000000024744993
:104AD000266C002E3FF422AE636C002B3FF41EAE1A
:104AE000A36C002B3FF41AAE237B002B00F0D78180
:104AF000502063681E220FA9B04784F84C0000289C
:104B00007FF40CAE1FED199A5FED198A1FED133A71
:104B10001FED158A5FED170A1FED191A5FED1B1ABD
:104B20001FED1D2A5FED1F2A17AE0CAB002F7FF47F
:104B3000F5ADCDE90075CDF808A01D46F078B27846
:104B4000B37955F8048B96F800C096F80E90377C30
:104B500096F80DB096F80FA0000140EA0230727985
:104B60001B0143EA0233327940EA1210F27943EA38
:104B7000121307EE903A327A737A43EA022309EE6F
:104B8000903A737888F80230E38BA26807EE103A07
:104B9000F8EEE77AB8EE477A67EE896A27EE286A78
:104BA00067EE837A94F9223027EE087A76EEC66AA9
:104BB00037EEC77A07EE903AF8EEE77AF3EE00AAFE
:104BC00067EEAA7AB4F9203066EEA66A012A67EE8B
:104BD000A66A07EE903AF8EEE77A0CF00F0167EE5E
:104BE000277A08BF07F0300E77EEA67A18BF09F0D3
:104BF000300E87EEA0AA0CF0800C4EEA0C0C01F1EE
:104C0000D80388F800C00DEB030C01F1D8031CF8A1
:104C10009CCC88F804C00DEB030C88F801106146A9
:104C20001CF892CC11F8881CC4ED0E7A88F8051097
:104C300088ED02AA88F803C02146FEF7A3FC94F988
:104C4000153088ED030A07EE103AB8EEC77A94F9EA
:104C5000163027EE037AF7EE006A27EE0A7AF8EEAE
:104C6000699A37EE267A06EE903A94F91430F8EE07
:104C7000E66A06EE103A66EE816ABAEEEF6A238AB9
:104C800066EE8A6A66EE0A5A66EE8A6A06EE103A9E
:104C9000638A77EE266A07EE103A94F91830B8EE78
:104CA000477A07EE903AB8EE466A27EE217AE37D1E
:104CB00026EE877A26EE2A6AF8EEE77A06EE903A32
:104CC00035EE866A67EE827AF8EE666A79EEC69A03
:104CD00067EE8A7A66EE836A27EE297A77EEA67AFD
:104CE00067EE877A67EE877A77EE877AF4EEE27A74
:104CF000F1EE10FA74DCF5EEC07AF1EE10FA01D59F
:104D00005FED8F7AC8ED047A012A6FD04FEA9910CF
:104D100094F93E2040EA8B0009F00F01FEF74EFDAA
:104D200011360DF18F039E4288ED050A7FF406AF20
:104D30009DF9A8209DF99030DDF808A0002ADDE952
:104D400000754FEAD37803DA08F101085FFA88F8B2
:104D50009DF9C0100029BCBF08F101085FFA88F86E
:104D6000002B67DB002A03DA2AAB0C9324AB0D93EC
:104D70000C9B93F90020002AC0F29C80002902DAE3
:104D800030AA0C920E93DDE90D2392F90010002950
:104D900060DB93F90010002901DACDE90D32DDE97D
:104DA0000C9EB9E80F0005F1180C05F130040FC591
:104DB00099E8030085E80300BEE80F00ACE80F00A7
:104DC0009EE803000E9E8CE803000FCE0FC496E809
:104DD000030084E80300B8F1000F7FF474AC9DE495
:104DE000F0EE627A012AC8ED047A8FD1BA0942EA5C
:104DF0008A0202EB420202F5206207EE902A07F0D7
:104E00000F034FF4802222FA03F307EE103A5FED0E
:104E1000D16AB8EEC77AF8EEE77A27EE267A11362D
:104E2000C7EE276A0DF18F039E42C8ED056A7FF435
:104E300085AE7DE7002A9BDA9DF892209DF8AA3086
:104E40009B1A9BB29A1C92B2012A8DD91BB2022BDB
:104E50008EDD89E793F900100029A0DA907899781F
:104E6000091A89B2881C80B2012896D909B2022990
:104E700093DC94E721461D20FEF762FC30B9D4F89C
:104E800040909D2040E44FF0FF3722E4256C63689A
:104E9000332217A91D20A84784F84C003EE4214680
:104EA0005020FEF74DFC266C074600287FF420AE0C
:104EB000D0201EE60029BFF666AF99789DF8C22083
:104EC000521A92B2911C89B2012903D912B2022A54
:104ED0007FF759AF30AA0C920D9A0E9392F90010F9
:104EE0000029BFF656AFB9E7184621460B920A9340
:104EF000FEF726FCDDE90A32074618B9276C43F0B5
:104F00008003A4E411461846256C63680122A84773
:104F100084F84C0000283FF471ACBFE54FF0FF3738
:104F200023E4184621460B920A93FEF709FCDDE9BB
:104F30000A3207460028E5D1276C43F08003C2E41B
:104F4000184621460B920A93FEF7FAFBDDE90A3276
:104F5000074600287FF497AD276C43F0800394E464
:104F60004FF0FF374AE4F0EE657A70E5099ADFED1D
:104F70000F6A4FEA9B1343EA82030BF00F0203EB25
:104F8000430B4FF48023D34007EE103A0BF5206B10
:104F900007EE90BAB8EEC77AF8EEE77A27EE267AEF
:104FA000C7EE276AC5ED056A64E500BF00247449B1
:104FB0002DE9F04792B0C9B307460E4600201146CE
:104FC0001546FFF737F8044618B1204612B0BDE881
:104FD000F0876E238DF80F30954B93E807000DF1A5
:104FE00010090DF11C080DF1280E0DF1340CA9E883
:104FF0000300A8E80300AEE80300ACE80300022FBA
:10500000A9F80020A8F80020AEF80020ACF8002095
:1050100000F01A81032F03D0012F0DD00124D4E713
:10502000F16819B1B068002840F055834FF0FF34A3
:10503000204612B0BDE8F08795F83C309FED7D7AB0
:10504000DFED7D2A9FED7F6ADFED7D7A9FED7B4A64
:10505000B18805EE103A95F93D3005EE903AB5F974
:105060001A30F8EEE55AB8EE455A65EE875A07EE63
:10507000103A7388BAEEE87AB3F5C87F27EE227A41
:10508000F1EE006A28BF4FF4C87335EE265A37EEAA
:10509000066A07EE103A86EE853A95F91930B1F5B1
:1050A0007C6FF8EE476AF7EE004A26EE267A75EE38
:1050B000A45A77EE246A07EE103A84EEA55A95F9C1
:1050C0001C30BAEECE7AF3EE093A37EE277A07EEC5
:1050D000903A95F90E3026EE877A06EE903AFAEE7F
:1050E000CB7AF8EEE66A4FF05A0367EEA67A8DF8AF
:1050F000103077EE277A4FF0640367EE837A8DF8ED
:10510000283067EE857A77EEE37A67EE847AFCEEF4
:10511000E77A17EE902A8DF81C2080F009843F2949
:1051200040F273832046890801303F29C0B2FAD883
:105130008401E3B20B44DBB28DF834300122002746
:1051400004A82B4607A90192FEF7EEFD04460028AD
:105150007FF43BAF019A0DA92B460AA8FEF7E4FDA8
:10516000044600287FF431AF002D3FF45FAF2C6C74
:10517000002C3FF45BAF6B6C002B3FF457AFAB6C74
:10518000002B3FF453AF2B7B002B00F042837020A9
:105190006B680AA90222A04785F84C00002840F05D
:1051A0004B833378012B00F04D8308229DF8293082
:1051B0002E6C03F0C00307F00F071F430023CDE957
:1051C0000D33CDE90F3311939DF8283023F00803F8
:1051D00038431A438DF829008DF82820002E3FF41B
:1051E00025AF6C6C002C3FF421AFAB6C002B3FF46F
:1051F0001DAF2B7B002B00F038837023D1B28DF8CC
:105200003430C2B271238DF835108DF837208DF807
:1052100036306B689DF8340003220DF13501A0474C
:105220000028044685F84C0018BF6FF00104CCE656
:10523000586100006F12033B6F12033A9A9959406C
:105240000000444275021A3BF268002A3FF4EEAEB9
:10525000B06800283FF4EAAE718A377C002908BFA5
:105260000324002F00F0088295F83C301FED0F7AE0
:105270005FED0F2A1FED0D4A1FED0F3A1FED115A7A
:1052800006EE103A95F93D3007EE903AB5F91A302E
:10529000F8EEE77AB8EE466A67EE877A07EE103ADC
:1052A0005A238DF810300388F1EE003A36EE236A67
:1052B000F7EE006AB3F5C87F77EEA67ABAEEE87A21
:1052C000C3EE865A28BF4FF4C873012F86EEA76A33
:1052D00027EE227A07EE903A95F9193037EE047AE4
:1052E00004EE103A95F91C30F8EE677A03EE903A26
:1052F000BAEECE4A95F90E3034EE034A67EE877A5D
:1053000003EE103A77EEA67AFAEECB3AB8EEC33A4D
:1053100067EE847A63EE833AF3EE094A77EEA37A76
:105320004FF0640367EEA57A8DF8283067EE867A31
:1053300077EEE47A67EE857AFCEEE77A17EE903A3C
:105340008DF81C3013888DF8343000F09581438837
:10535000B3F5C87F28BF4FF4C87307EE903AF8EE54
:10536000677A652367EE877A8DF8293077EEA67A1B
:10537000022F67EE847A77EEA37A67EEA57A67EE5E
:10538000867A77EEE47A67EE857AFCEEE77A17EEB6
:10539000903A8DF81D3053888DF835304FF05B030F
:1053A0008DF8113000F068818388B3F5C87F28BF7D
:1053B0004FF4C87307EE903AF8EE677A662367EE0B
:1053C000877A8DF82A3077EEA67A032F67EE847AF3
:1053D00077EEA37A67EEA57A67EE867A77EEE47ABF
:1053E00067EE857AFCEEE77A17EE903A8DF81E307C
:1053F00093888DF836304FF05C038DF8123000F052
:105400003B81C388B3F5C87F28BF4FF4C87307EE4C
:10541000903AF8EE677A672367EE877A8DF82B303B
:1054200077EEA67A042F67EE847A77EEA37A67EE9A
:10543000A57A67EE867A77EEE47A67EE857AFCEEF7
:10544000E77A17EE903A8DF81F30D3888DF8373011
:105450004FF05D038DF8133000F00E810389B3F532
:10546000C87F28BF4FF4C87307EE903AF8EE677A0A
:10547000682367EE877A8DF82C3077EEA67A052FB1
:1054800067EE847A77EEA37A67EEA57A67EE867A7E
:1054900077EEE47A67EE857AFCEEE77A17EE903ADB
:1054A0008DF8203013898DF838304FF05E038DF879
:1054B000143000F0E1804389B3F5C87F28BF4FF472
:1054C000C87307EE903AF8EE677A692367EE877A39
:1054D0008DF82D3077EEA67A062F67EE847A77EE78
:1054E000A37A67EEA57A67EE867A77EEE47A67EEBE
:1054F000857AFCEEE77A17EE903A8DF821305389E1
:105500008DF839304FF05F038DF8153000F0B4801E
:105510008389B3F5C87F28BF4FF4C87307EE903A6C
:10552000F8EE677A6A2367EE877A8DF82E3077EE89
:10553000A67A072F67EE847A77EEA37A67EEA57ACC
:1055400067EE867A77EEE47A67EE857AFCEEE77AA4
:1055500017EE903A8DF8223093898DF83A304FF05B
:1055600060038DF8163000F08780C389B3F5C87FDB
:1055700028BF4FF4C87307EE903AF8EE677A6B23B2
:1055800067EE877A8DF82F3077EEA67A082F67EED0
:10559000847A77EEA37A67EEA57A67EE867A77EE5D
:1055A000E47A67EE857AFCEEE77A17EE903A8DF8AA
:1055B0002330D3898DF83B304FF061038DF81730DD
:1055C0005AD0038AB3F5C87F28BF4FF4C87307EEDB
:1055D000903AF8EE677A6C2367EE877A8DF8303070
:1055E00077EEA67A092F67EE847A77EEA37A67EED4
:1055F000A57A67EE867A77EEE44A24EE855AFCEEC9
:10560000C57A17EE903A8DF82430138A8DF83C3025
:105610004FF062038DF818302ED0438AB3F5C87F5F
:1056200028BF4FF4C87307EE903AF8EE677AB0EEF1
:10563000665A67EE877AF3EE096A77EE857A9FED10
:10564000C37A67EE847A6D2377EEA37A8DF83130D2
:1056500067EEA57A67EE867A77EEE67A67EE877A66
:10566000FCEEE77A17EE903A8DF82530538A8DF8E4
:105670003D3063238DF8193040F28273994200F275
:1056800059814FF47A72B24B02FB01F183FB012383
:10569000C3F30F1247F23F7399424FF0000306D94C
:1056A000920801333F2ADBB2FAD89B01DBB21344E4
:1056B000DBB28DF80E30002C7FF487AC2A460DF15A
:1056C0000E010DF10F00FEF7E5F8044600287FF407
:1056D0007CAC3A4634E5377C002FFAD095F93D3062
:1056E0009FED9C7ADFED9C2A9FED9C6A9FED9C3A92
:1056F000DFED963A07EE903AF8EEE77AF7EE005AC9
:1057000067EE877A95F83C3077EEA57AF1EE006A7D
:10571000C5EEA74A07F15A09023802395FFA89F93A
:105720000DF110080DF11C0E0DF1280C0DAC5A22D4
:1057300007EE903AB5F91A3007EE103ABAEEE87A69
:1057400095F91930F8EE677A27EE227A77EEA67A85
:1057500037EE067A06EE103A95F91C3086EEA75A17
:1057600006EE903A95F90E3007EE903ABAEECE6A10
:10577000FAEECB6AF8EEE77A36EE036A66EEA76ACF
:10578000B3EE094A08F8012B30F8023FB3F5C87FA1
:1057900028BF4FF4C87307EE903AF8EE677A02F12B
:1057A0000A0A67EE877A0CF801AB77EEA57A67EE06
:1057B000867A77EEA67A67EE857A67EEA47A77EE38
:1057C000C47A67EEA37AFCEEE77A17EE903A0EF809
:1057D000013B31F802AFBAF57C6F18D2BAF13F0F36
:1057E0004FF0000308D94FEA9A0A0133BAF13F0F8C
:1057F000DBB2F8D89B01DBB25344DBB20132D2B248
:105800004A4504F8013BBDD163E7234692E4FF23F8
:10581000F4E729467020FDF793FF0446C8B92C6CC5
:10582000F020B5E42B7B9DF828208DF835207021E1
:105830008DF83410002B44D06FF00104204612B0D4
:10584000BDE8F087AB68012B02460CBF202010207A
:10585000ACE42E6C6B680AA902227020B04785F870
:105860004C0000283FF4B1ABE6E76A7B102A1FD05A
:1058700010226A736B68012207A9F320B04785F8EC
:105880004C000028CED19DF81C206B7B6C6C03F083
:10589000100322F010021A438DF81C206B680122BD
:1058A00007A97320A04785F84C000028BAD12B7BAC
:1058B0009DF828208DF8352070218DF83410002BAC
:1058C0003AD12E6C002E3FF4B1AB6C6C002C3FF43F
:1058D000ADABAB6C002B3FF4A9AB6B7B102B1FD097
:1058E00010226A736B68012207A9F320B04785F87C
:1058F0004C000028A0D19DF81C306A7B6C6C23F012
:10590000100302F010021A438DF81C206B6807A9DF
:1059100001227320A04785F84C0000288CD16C6CC4
:105920009DF829308DF8373071228DF8362070E4DB
:10593000FF2301E4FF23BCE69DF829306C6C8DF851
:10594000373071228DF8362063E400BF9A995940B0
:10595000C54596086F12033B6F12033A75021A3B56
:105960000000444210B44FF080414FF080530020BB
:10597000C1F80C015F4AC1F81001C1F83805D3F82D
:105980000404C2F82005D3F80804C2F82405D3F8AB
:105990000C04C2F82805D3F81004C2F82C05D3F87B
:1059A0001404C2F83005D3F81804C2F83405D3F84B
:1059B0001C04C2F84005D3F82004C2F84405D3F80B
:1059C0002404C2F84805D3F82804C2F84C05D3F8DB
:1059D0002C04C2F85005D3F83004C2F85405D3F8AB
:1059E0003404C2F86005D3F83804C2F86405D3F86B
:1059F0003C04C2F86805D3F84004C2F86C05D3F83B
:105A00003001D3F84444C2F87045082824D04FF040
:105A10008043D3F80024D20744BF6FF00102C3F8DB
:105A20000024354AD2F8883043F47003C2F8883035
:105A3000BFF34F8FBFF36F8F4FF01023D3F80022C7
:105A4000002A26DBD3F80432002B22DB2B4B2C4A16
:105A50001A605DF8044B7047D3F83421002AD6D180
:105A60002848294A294CC0F88C46FB20C2F8180562
:105A7000D1F8E42ED3F85832254822F00F0203F073
:105A80000F0313434FF40072C1F8E43EC0F8402600
:105A9000BDE7204A0123C2F80435D2F80034002BB8
:105AA000FBD04FF0102312211A4AC3F80012D2F88B
:105AB0000034002BFBD04FF010231221154AC3F8FD
:105AC0000412D2F80034002BFBD000231149C2F895
:105AD0000435D1F80034002BFBD0BFF34F8F0649BB
